{
  "contractName": "EHR",
  "abi": [
    {
      "inputs": [
        {
          "internalType": "address",
          "name": "",
          "type": "address"
        }
      ],
      "name": "patientIndex",
      "outputs": [
        {
          "internalType": "uint256",
          "name": "",
          "type": "uint256"
        }
      ],
      "stateMutability": "view",
      "type": "function",
      "constant": true
    },
    {
      "inputs": [
        {
          "internalType": "uint256",
          "name": "",
          "type": "uint256"
        }
      ],
      "name": "patients",
      "outputs": [
        {
          "internalType": "string",
          "name": "name",
          "type": "string"
        },
        {
          "internalType": "uint256",
          "name": "age",
          "type": "uint256"
        },
        {
          "internalType": "string",
          "name": "medicalHistory",
          "type": "string"
        }
      ],
      "stateMutability": "view",
      "type": "function",
      "constant": true
    },
    {
      "inputs": [
        {
          "internalType": "string",
          "name": "name",
          "type": "string"
        },
        {
          "internalType": "uint256",
          "name": "age",
          "type": "uint256"
        },
        {
          "internalType": "string",
          "name": "medicalHistory",
          "type": "string"
        }
      ],
      "name": "addPatient",
      "outputs": [],
      "stateMutability": "nonpayable",
      "type": "function"
    },
    {
      "inputs": [],
      "name": "getPatientCount",
      "outputs": [
        {
          "internalType": "uint256",
          "name": "",
          "type": "uint256"
        }
      ],
      "stateMutability": "view",
      "type": "function",
      "constant": true
    },
    {
      "inputs": [
        {
          "internalType": "uint256",
          "name": "index",
          "type": "uint256"
        }
      ],
      "name": "getPatientByIndex",
      "outputs": [
        {
          "internalType": "string",
          "name": "",
          "type": "string"
        },
        {
          "internalType": "uint256",
          "name": "",
          "type": "uint256"
        },
        {
          "internalType": "string",
          "name": "",
          "type": "string"
        }
      ],
      "stateMutability": "view",
      "type": "function",
      "constant": true
    },
    {
      "inputs": [
        {
          "internalType": "address",
          "name": "account",
          "type": "address"
        }
      ],
      "name": "getPatient",
      "outputs": [
        {
          "internalType": "string",
          "name": "",
          "type": "string"
        },
        {
          "internalType": "uint256",
          "name": "",
          "type": "uint256"
        },
        {
          "internalType": "string",
          "name": "",
          "type": "string"
        }
      ],
      "stateMutability": "view",
      "type": "function",
      "constant": true
    }
  ],
  "bytecode": "0x608060405234801561001057600080fd5b50610d06806100206000396000f3fe608060405234801561001057600080fd5b50600436106100625760003560e01c8063406bb91f1461006757806357ea0c2f1461009757806393119a83146100c9578063b5368e20146100fb578063c190665b1461012d578063d65da44a1461014b575b600080fd5b610081600480360381019061007c91906108ca565b610167565b60405161008e9190610a88565b60405180910390f35b6100b160048036038101906100ac9190610972565b61017f565b6040516100c093929190610a23565b60405180910390f35b6100e360048036038101906100de9190610972565b61036d565b6040516100f293929190610a23565b60405180910390f35b610115600480360381019061011091906108ca565b6104b7565b60405161012493929190610a23565b60405180910390f35b6101356106a3565b6040516101429190610a88565b60405180910390f35b610165600480360381019061016091906108f3565b6106af565b005b60016020528060005260406000206000915090505481565b60606000606060008054905084106101cc576040517f08c379a00000000000000000000000000000000000000000000000000000000081526004016101c390610a68565b60405180910390fd5b6000808581548110610207577f4e487b7100000000000000000000000000000000000000000000000000000000600052603260045260246000fd5b906000526020600020906003020160405180606001604052908160008201805461023090610bd2565b80601f016020809104026020016040519081016040528092919081815260200182805461025c90610bd2565b80156102a95780601f1061027e576101008083540402835291602001916102a9565b820191906000526020600020905b81548152906001019060200180831161028c57829003601f168201915b50505050508152602001600182015481526020016002820180546102cc90610bd2565b80601f01602080910402602001604051908101604052809291908181526020018280546102f890610bd2565b80156103455780601f1061031a57610100808354040283529160200191610345565b820191906000526020600020905b81548152906001019060200180831161032857829003601f168201915b5050505050815250509050806000015181602001518260400151935093509350509193909250565b6000818154811061037d57600080fd5b90600052602060002090600302016000915090508060000180546103a090610bd2565b80601f01602080910402602001604051908101604052809291908181526020018280546103cc90610bd2565b80156104195780601f106103ee57610100808354040283529160200191610419565b820191906000526020600020905b8154815290600101906020018083116103fc57829003601f168201915b50505050509080600101549080600201805461043490610bd2565b80601f016020809104026020016040519081016040528092919081815260200182805461046090610bd2565b80156104ad5780601f10610482576101008083540402835291602001916104ad565b820191906000526020600020905b81548152906001019060200180831161049057829003601f168201915b5050505050905083565b6060600060606000600160008673ffffffffffffffffffffffffffffffffffffffff1673ffffffffffffffffffffffffffffffffffffffff168152602001908152602001600020549050600080828154811061053c577f4e487b7100000000000000000000000000000000000000000000000000000000600052603260045260246000fd5b906000526020600020906003020160405180606001604052908160008201805461056590610bd2565b80601f016020809104026020016040519081016040528092919081815260200182805461059190610bd2565b80156105de5780601f106105b3576101008083540402835291602001916105de565b820191906000526020600020905b8154815290600101906020018083116105c157829003601f168201915b505050505081526020016001820154815260200160028201805461060190610bd2565b80601f016020809104026020016040519081016040528092919081815260200182805461062d90610bd2565b801561067a5780601f1061064f5761010080835404028352916020019161067a565b820191906000526020600020905b81548152906001019060200180831161065d57829003601f168201915b505050505081525050905080600001518160200151826040015194509450945050509193909250565b60008080549050905090565b600060405180606001604052808581526020018481526020018381525090806001815401808255809150506001900390600052602060002090600302016000909190919091506000820151816000019080519060200190610711929190610795565b50602082015181600101556040820151816002019080519060200190610738929190610795565b505050600160008054905061074d9190610b20565b600160003373ffffffffffffffffffffffffffffffffffffffff1673ffffffffffffffffffffffffffffffffffffffff16815260200190815260200160002081905550505050565b8280546107a190610bd2565b90600052602060002090601f0160209004810192826107c3576000855561080a565b82601f106107dc57805160ff191683800117855561080a565b8280016001018555821561080a579182015b828111156108095782518255916020019190600101906107ee565b5b509050610817919061081b565b5090565b5b8082111561083457600081600090555060010161081c565b5090565b600061084b61084684610ad4565b610aa3565b90508281526020810184848401111561086357600080fd5b61086e848285610b90565b509392505050565b60008135905061088581610ca2565b92915050565b600082601f83011261089c57600080fd5b81356108ac848260208601610838565b91505092915050565b6000813590506108c481610cb9565b92915050565b6000602082840312156108dc57600080fd5b60006108ea84828501610876565b91505092915050565b60008060006060848603121561090857600080fd5b600084013567ffffffffffffffff81111561092257600080fd5b61092e8682870161088b565b935050602061093f868287016108b5565b925050604084013567ffffffffffffffff81111561095c57600080fd5b6109688682870161088b565b9150509250925092565b60006020828403121561098457600080fd5b6000610992848285016108b5565b91505092915050565b60006109a682610b04565b6109b08185610b0f565b93506109c0818560208601610b9f565b6109c981610c91565b840191505092915050565b60006109e1601683610b0f565b91507f50617469656e7420646f6573206e6f74206578697374000000000000000000006000830152602082019050919050565b610a1d81610b86565b82525050565b60006060820190508181036000830152610a3d818661099b565b9050610a4c6020830185610a14565b8181036040830152610a5e818461099b565b9050949350505050565b60006020820190508181036000830152610a81816109d4565b9050919050565b6000602082019050610a9d6000830184610a14565b92915050565b6000604051905081810181811067ffffffffffffffff82111715610aca57610ac9610c62565b5b8060405250919050565b600067ffffffffffffffff821115610aef57610aee610c62565b5b601f19601f8301169050602081019050919050565b600081519050919050565b600082825260208201905092915050565b6000610b2b82610b86565b9150610b3683610b86565b925082821015610b4957610b48610c04565b5b828203905092915050565b6000610b5f82610b66565b9050919050565b600073ffffffffffffffffffffffffffffffffffffffff82169050919050565b6000819050919050565b82818337600083830152505050565b60005b83811015610bbd578082015181840152602081019050610ba2565b83811115610bcc576000848401525b50505050565b60006002820490506001821680610bea57607f821691505b60208210811415610bfe57610bfd610c33565b5b50919050565b7f4e487b7100000000000000000000000000000000000000000000000000000000600052601160045260246000fd5b7f4e487b7100000000000000000000000000000000000000000000000000000000600052602260045260246000fd5b7f4e487b7100000000000000000000000000000000000000000000000000000000600052604160045260246000fd5b6000601f19601f8301169050919050565b610cab81610b54565b8114610cb657600080fd5b50565b610cc281610b86565b8114610ccd57600080fd5b5056fea264697066735822122004e1c8cdc94f305360c99d38ec430945db7d593f6ae7e697dc42558b6643542f64736f6c63430008000033",
  "immutableReferences": {},
  "source": "// SPDX-License-Identifier: MIT\r\npragma solidity ^0.8.0;\r\n\r\ncontract EHR {\r\n    struct Patient {\r\n        string name;\r\n        uint age;\r\n        string medicalHistory;\r\n    }\r\n\r\n    Patient[] public patients;\r\n    mapping(address => uint) public patientIndex;\r\n\r\n    function addPatient(string memory name, uint age, string memory medicalHistory) public {\r\n        patients.push(Patient(name, age, medicalHistory));\r\n        patientIndex[msg.sender] = patients.length - 1;\r\n    }\r\n\r\n    function getPatientCount() public view returns (uint) {\r\n        return patients.length;\r\n    }\r\n\r\n    function getPatientByIndex(uint index) public view returns (string memory, uint, string memory) {\r\n        require(index < patients.length, \"Patient does not exist\");\r\n        Patient memory patient = patients[index];\r\n        return (patient.name, patient.age, patient.medicalHistory);\r\n    }\r\n\r\n    function getPatient(address account) public view returns (string memory, uint, string memory) {\r\n        uint index = patientIndex[account];\r\n        Patient memory patient = patients[index];\r\n        return (patient.name, patient.age, patient.medicalHistory);\r\n    }\r\n}\r\n",
  "sourcePath": "C:\\Users\\Sadvika\\ehr-blockchain\\contracts\\EHR.sol",
  "compiler": {
    "name": "solc",
    "version": "0.8.0+commit.c7dfd78e.Emscripten.clang"
  },
  "schemaVersion": "3.4.16",
  "updatedAt": "2024-05-22T06:22:36.256Z",
  "networkType": "ethereum",
  "devdoc": {
    "kind": "dev",
    "methods": {},
    "version": 1
  },
  "userdoc": {
    "kind": "user",
    "methods": {},
    "version": 1
  }
}